:03000000020924CE
:0C092400787FE4F6D8FD75812102096B94
:1007E80041001700420018000042000000004200CB
:1007F8000200004200040000420006000042000916
:100808000000C10B41000D00410016004100080125
:10081800C100C10641001500C102C101C10CC105DA
:10082800C108C107C10A5C001A00000000000000EE
:1008380000000000000000000000000000000000B0
:10084800000000000047003A0000000000000042DD
:100858000010000041000F00C109C104410036002A
:100868004100130041000E00C183410038004100DF
:10087800140042000B0000410039004100370141DB
:030888000012005B
:100C4100D290743A29F582E43400F583E025E0F08E
:040C51007F327E0070
:100C5500E4FDFCC3ED9FEC9E5015E4FBFA0BBB00D5
:0F0C6500010AEB64134A70F50DBD00010C80E429
:010C7400225D
:100D5E00E4FDFCC3ED9FEC9E5015E4FBFA0BBB00CB
:0F0D6E00010AEB641A4A70F50DBD00010C80E418
:010D7D002253
:100A1E00D2A690003A74C8F0A374E0F074C2A3F0AA
:090A2E00E4A3F0A3F0A3F0A3F08F
:100A370090004674AAF0E4900045F0E4F99000466F
:100A4700E0C2907F507E00120C55D290900046E095
:100A570025E0F07F967E00120C5509E9B408DE9078
:100A6700004674AAF07F967E00120C55900045E070
:100A770004F0E0C3940340C3D2907F507E00020C81
:010A87005519
:10088C00120DF412000E120E1BC280D2A9D2ABD2E2
:10089C00BBD2AFD290C292120003D2A4C294C2A215
:1008AC00D2A37F1B7E00120DBEC2A2C2A3E4900095
:1008BC0014F09000107403F0A374FFF0E4A3F07F25
:1008CC0005120C7590000FEFF07F06120C7590005E
:1008DC0010E4F0A3EFF0E4900037F0900039F0C38F
:1008EC00748094814004D2948002C294C39000110D
:1008FC00E09477900010E094034004D2928002C2FE
:10090C009290000BE0B446D7A3E0B450D2C293E46B
:08091C0090000BF0A3F080C76E
:03001B00020603D7
:10060300C0E0C0F0C083C082C0D075D000C000C0BD
:1006130001C002C003C004C005C006C007758DFF3A
:10062300758B8E30931190000CE004F070069000EF
:100633000BE004F00207CD209110900036E004F0A7
:10064300C203E064967069F0806620034CD2039085
:100653000036E0FFD3943C4012EFD39464500C90E7
:100663000013E0FF25E0F054FE8013900036E0D342
:1006730094644018900013E0FF25E0F04401F090EB
:10068300000EE004F0900038E4F08006900038E0BB
:1006930004F0900036E4F08017900038E004F0E0B6
:1006A300C39478400B90000EE4F0D203900017F04F
:1006B30090000EE06408705CF0900013E0FF90007F
:1006C30017E0FE243AF582E43400F583EFF0EE7090
:1006D3000F90003AE0B4C8089000177401F080341A
:1006E300EEB4010F90003BE0B4E0089000177402F1
:1006F300F08021EEC39402400EEED394055008908F
:100703000017E004F0800DEEB40604D209800090D7
:100713000017E4F02009030207CDC209D293900029
:100723003CE01460322440605D24C160030207CDC5
:10073300D2A6D2A4900014E07014D2A2C2A37F1B4D
:10074300FE120DBEC2A2C2A39000147401F0C2A592
:10075300D2049000398070C2A4900014E0B4011454
:10076300C2A2D2A37F1B7E00120DBEC2A2C2A3905F
:100773000014E4F0C2A5C204C200900015E4F09096
:10078300003904F08044120A88C200900015E4F096
:10079300900012F0C2A5C20C900014E07014D2A213
:1007A300C2A37F1BFE120DBEC2A2C2A3900014748B
:1007B30001F0900016E4F0900008E0FF6403600489
:1007C300EFB402069000087401F0D007D006D005FC
:1007D300D004D003D002D001D000D0D0D082D083B7
:0507E300D0F0D0E0326F
:03000B00020406E6
:10040600C0E0C0F0C083C082C0D075D000C000C0BC
:1004160001C002C003C004C005C006C007758C2415
:10042600758A45900005E004F07006900004E0042B
:10043600F0C3900005E0943C900004E09400407402
:10044600300453900016E004F0E09403403E900020
:1004560008E0FF640170359000167404F0EF640143
:10046600702A900014E0B40114C2A2D2A37F1B7EAE
:1004760000120DBEC2A2C2A3900014E4F0D2A5D20F
:100486000C9000087402F090001214F0900012E034
:10049600B40103120C05900004E4F0A3F07F0512EA
:1004A6000C7590000FEFF07F06120C75900010E4AB
:1004B600F0A3EFF030A55920872B900003E004F05D
:1004C6007006900002E004F0C3900003E0940A90E6
:1004D6000002E094004039E4F0A3F090000DE0043F
:1004E600F0D206802B30872890000DE06022900025
:1004F60001E004F07006900000E004F0C3900001F3
:10050600E09464900000E09400400590000DE4F053
:10051600900008E06402704D90000DE0FFC3940166
:100526004043EFB40119300616C2A4D2947F0112DB
:100536000CA97F8C7E00120DBEC294D2A4C2069076
:10054600000DE0C39402401D9000087403F0D20031
:10055600C20690000DE4F07F01FE120DBE9000125F
:10056600E4F0120AD8900008E064037075300014B5
:10057600C2A4D2947F03120CA97F787E00120DBE0E
:10058600C294D2A4300014C2A4D2947F04120CA93F
:100596007FBE7E00120DBEC294D2A4120AD83000CD
:1005A60014C2A4D2947F03120CA97F787E00120D88
:1005B600BEC294D2A4300014C2A4D2947F0B120CF3
:1005C600A97FBE7E00120DBEC294D2A4120AD89094
:1005D6000015E0C394144004E4F0C200900015E056
:1005E60004F0D007D006D005D004D003D002D00145
:0D05F600D000D0D0D082D083D0F0D0E03241
:100BBB00D2A690003A74C8F0A374E0F074C1120A84
:100BCB002CE4F9E490004CF0743A29F582E43400FB
:100BDB00F583E030E706C2907F788004C2907F50A7
:100BEB007E00120C55120C4190004CE004F0E0C357
:090BFB00940840D409E9B407CACA
:010C040022CD
:100C0500120A1EE4F9E4900044F0743A29F582E4EE
:100C15003400F583E030E706C2907F788004C29007
:100C25007F507E00120C55120C41900044E004F0F8
:0B0C3500E0C3940840D409E9B407CAEA
:010C40002291
:100A8800120A1EE4F9E4900041F0743A29F582E470
:100A98003400F583E030E706C2907F788004C29086
:100AA8007F507E00120D5ED290743A29F582E434AC
:100AB80000F583E025E0F07F327E00120D5E9000A5
:0F0AC80041E004F0E0C3940840C009E9B407B668
:010AD70022FC
:100AD800C2A690003A74C8F0A374E0F0A374C312DD
:100AE8000A2DE4F9E4900044F0743A29F582E434DC
:100AF80000F583E030E706C2907F788004C2907FDB
:100B0800507E00120C55120C41900044E004F0E0B5
:0C0B1800C3940840D409E9B407CAD2A66F
:010B240022AE
:100B2500C2A690003A74C8F0A374E0F0A374C4128E
:100B35000A2DE4F9E490004DF0743A29F582E43485
:100B450000F583E030E706C2907F788004C2907F8D
:100B5500507E00120C55120C4190004DE004F0E05F
:0A0B6500C3940840D409E9B407CA9C
:010B6F002263
:100B7000C2A690003A74C8F0A374E0F0A374C51242
:100B80000A2DE4F9E490004EF0743A29F582E43439
:100B900000F583E030E706C2907F788004C2907F42
:100BA000507E00120C55120C4190004EE004F0E013
:0A0BB000C3940840D409E9B407CA51
:010BBA002218
:100DBE00EF1FAA0670011E4A60107C137D88ED1D80
:0A0DCE00AA0470011C4A60E880F4DA
:010DD80022F8
:100C7500EF6405700743F620C2F8800AEF6406703A
:100C85002243F640D2F8C2F9D2FA43E180C2FCD23F
:100C9500FBAEF8EEC413135403FEADE2ED25E025DB
:030CA500E02EFF3F
:010CA8002229
:100DD90075DCC090004AE4F0A3741DF090004AE06D
:0B0DE900FCA3E0FDECF5D1EDF5D922F4
:1009B000EF14602214603714604C2403705F9000C1
:1009C0004AE4F0A3740DF090004AE0FCA3E0FDECD3
:1009D000F5D2EDF5DA2290004A7401F0A3E4F0902C
:1009E000004AE0FCA3E0FDECF5D3EDF5DB2290003E
:1009F0004AE4F0A37480F090004AE0FCA3E0FDEC30
:100A0000F5D5EDF5DD2290004AE4F0A37440F090B6
:0E0A1000004AE0FCA3E0FDECF5D6EDF5DE2299
:08000300E4FF1209B0020DD95F
:0C000E00758921758C24758A45D28C22DE
:10001E00000102030405060708090A0B0C0D0E0F5A
:10002E00101112131415161718191A1B1C1D1E1F4A
:10003E00202122232425262728292A2B2C2D2E2F3A
:10004E003031000102030405060708090A0B0C0DE6
:10005E000E0F101112131415161718191A1B1C1D3A
:10006E001E1F202122232425262728292A2B2C2D2A
:10007E002E2F3031000102030405060708090A0B72
:10008E000C0D0E0F101112131415161718191A1B2A
:10009E001C1D1E1F202122232425262728292A2B1A
:1000AE002C2D2E2F303100010203040506070809FE
:1000BE000A0B0C0D0E0F101112131415161718191A
:1000CE001A1B1C1D1E1F202122232425262728290A
:1000DE002A2B2C2D2E2F303100010203040506078A
:1000EE0008090A0B0C0D0E0F10111213141516170A
:1000FE0018191A1B1C1D1E1F2021222324252627FA
:10010E0028292A2B2C2D2E2F303100010203040515
:10011E00060708090A0B0C0D0E0F101112131415F9
:10012E00161718191A1B1C1D1E1F202122232425E9
:10013E00262728292A2B2C2D2E2F303100010203A1
:10014E000405060708090A0B0C0D0E0F10111213E9
:10015E001415161718191A1B1C1D1E1F20212223D9
:10016E002425262728292A2B2C2D2E2F303100012D
:10017E0002030405060708090A0B0C0D0E0F1011D9
:10018E0012131415161718191A1B1C1D1E1F2021C9
:10019E0022232425262728292A2B2C2D2E2F3031B9
:1001AE00000102030405060708090A0B0C0D0E0FC9
:1001BE00101112131415161718191A1B1C1D1E1FB9
:1001CE00202122232425262728292A2B2C2D2E2FA9
:1001DE003031000102030405060708090A0B0C0D55
:1001EE000E0F101112131415161718191A1B1C1DA9
:1001FE001E1F202122232425262728292A2B2C2D99
:10020E002E2F3031000102030405060708090A0BE0
:10021E000C0D0E0F101112131415161718191A1B98
:10022E001C1D1E1F202122232425262728292A2B88
:10023E002C2D2E2F3031000102030405060708096C
:10024E000A0B0C0D0E0F1011121314151617181988
:10025E001A1B1C1D1E1F2021222324252627282978
:10026E002A2B2C2D2E2F30310001020304050607F8
:10027E0008090A0B0C0D0E0F101112131415161778
:10028E0018191A1B1C1D1E1F202122232425262768
:10029E0028292A2B2C2D2E2F303100010203040584
:1002AE00060708090A0B0C0D0E0F10111213141568
:1002BE00161718191A1B1C1D1E1F20212223242558
:1002CE00262728292A2B2C2D2E2F30310001020310
:1002DE000405060708090A0B0C0D0E0F1011121358
:1002EE001415161718191A1B1C1D1E1F2021222348
:1002FE002425262728292A2B2C2D2E2F303100019C
:10030E0002030405060708090A0B0C0D0E0F101147
:10031E0012131415161718191A1B1C1D1E1F202137
:10032E0022232425262728292A2B2C2D2E2F303127
:10033E00000102030405060708090A0B0C0D0E0F37
:10034E00101112131415161718191A1B1C1D1E1F27
:10035E00202122232425262728292A2B2C2D2E2F17
:10036E003031000102030405060708090A0B0C0DC3
:10037E000E0F101112131415161718191A1B1C1D17
:10038E001E1F202122232425262728292A2B2C2D07
:10039E002E2F3031000102030405060708090A0B4F
:1003AE000C0D0E0F101112131415161718191A1B07
:1003BE001C1D1E1F202122232425262728292A2BF7
:1003CE002C2D2E2F303100010203040506070809DB
:1003DE000A0B0C0D0E0F10111213141516171819F7
:1003EE001A1B1C1D1E1F20212223242526272829E7
:0803FE002A2B2C2D2E2F30318B
:100E090053A2BF75985A758920758BC6758DC6D240
:020E19008E2227
:080E27008F993099FDC2992258
:100D0900900047EBF0A3EAF0A3E9F0AF051DEF600F
:100D190019900047E0FBA3E475F001120CF3A9F068
:0B0D2900FA120CDAFF120E2780E12204
:100D34007DE87C03741D2DF58274003CF583E493F7
:100D4400B50709ED24FFFFEC34FFFE22ED1D700111
:090D54001CED4C70DF7E037FE909
:010D5D002273
:100D7E00E4FDFCC3ED9FEC9E5015E4FBFA0BBB00AB
:0F0D8E00010ABA01F8BBF4F50DBD00010C80E4B9
:010D9D002233
:100D9E00E4FDFCC3ED9FEC9E5015E4FBFA0BBB008B
:0F0DAE00010AEB64024A70F50DBD00010C80E4F0
:010DBD002213
:050CA900900044EFF093
:100CAE00C2A07F1E7E00120D7ED2A0120D7EE4F930
:100CBE00900044E0FFE9C39F5011D2A17FFA7E005D
:0B0CCE00120D9EC2A1120D9E0980E5D0
:010CD90022F8
:100DF400C294C2A1C2A07FE87E03120D9ED2A012AB
:050E04000D9ED29422B6
:0C0E1B00758911758DFF758B8ED28E22AB
:1009300002088CE493A3F8E493A34003F68001F249
:1009400008DFF48029E493A3F85407240CC8C333C8
:10095000C4540F4420C8834004F456800146F6DF97
:10096000E4800B01020408102040809007E8E47E38
:10097000019360BCA3FF543F30E509541FFEE4938C
:10098000A360010ECF54C025E060A840B8E493A353
:10099000FAE493A3F8E493A3C8C582C8CAC583CA7E
:1009A000F0A3C8C582C8CAC583CADFE9DEE780BE36
:01088B00006C
:100CDA00BB010689828A83E0225002E722BBFE0218
:090CEA00E32289828A83E493224B
:100CF300A3F8E0C5F025F0F0E582158270021583B4
:060D0300E0C838F0E82210
:00000001FF
