:030000000208896A
:0C088900787FE4F6D8FD7581210208D0CC
:1007E50041001700420018000042000000004200CE
:1007F5000200004200040000420006000042000919
:100805000000C10B41000D00410016004100080128
:10081500C100C10641001500C102C101C10CC105DD
:10082500C108C107C10A5C001A00000000000000F1
:1008350000000000000000000000000000000000B3
:10084500000000000047003A0000000000000042E0
:100855000010000041000F00C109C104410036002D
:100865004100130041000E00C183410038004100E2
:10087500140042000B0000410039004100370141DE
:030885000012005E
:100C8400D290743A29F582E43400F583E025E0F04B
:040C94007F327E002D
:100C9800E4FDFCC3ED9FEC9E5015E4FBFA0BBB0092
:0F0CA800010AEB64134A70F50DBD00010C80E4E6
:010CB700221A
:100DA100E4FDFCC3ED9FEC9E5015E4FBFA0BBB0088
:0F0DB100010AEB641A4A70F50DBD00010C80E4D5
:010DC0002210
:100C3E0090004374B4F0E4900042F0E4F990004365
:100C4E00E0C2907F2C7E01120C98D290900043E06F
:100C5E0025E0F07F647E00120C9809E9B408DE905E
:100C6E00004374AA120C93900042E004F0E0C39487
:050C7E000840C8D290FF
:010C8300224E
:0B0A7100A3F0E4A3F0A3F0A3F0A3F0B7
:100A7C0090004674B4F0E4900045F0E4F990004620
:100A8C00E0C2907FCD7E00120C98D290900046E090
:100A9C0025E0F07F467E00120C9809E9B408DE9040
:100AAC00004674AAF07F237E00120C98900045E05B
:0A0ABC0004F0E0C3940840C3D29098
:010AC600220D
:10091500120E3712000E120E5EC280D2A9D2ABD2D1
:10092500BBD2AFD290C292120003D2A4C294C2A28B
:10093500D2A37F1B7E00120E01C2A2C2A3E49000C7
:1009450014F09000107403F0A374FFF0E4A3F07F9B
:1009550005120CB890000FEFF07F06120CB890004E
:1009650010E4F0A3EFF0E4900037F0900039F0C206
:10097500A5C3748094814004D2948002C294C3902C
:100985000011E09477900010E094034004D2928027
:05099500E0C29280DCCD
:03001B00020614C6
:10061400C0E0C0F0C083C082C0D075D000C000C0AC
:1006240001C002C003C004C005C006C007758DFF29
:10063400758B8E209110900036E004F0C203E064C4
:10064400967069F0806620034CD203900036E0FF78
:10065400D3943C4012EFD39464500C900013E0FF09
:1006640025E0F054FE8013900036E0D394644018E3
:10067400900013E0FF25E0F04401F090000EE00448
:10068400F0900038E4F08006900038E004F0900028
:1006940036E4F08017900038E004F0E0C39496400C
:1006A4000B90000EE4F0D203900017F090000EE0DF
:1006B4006408705CF0900013E0FF900017E0FE24E3
:1006C4003AF582E43400F583EFF0EE700F90003ACF
:1006D400E0B4C8089000177401F08034EEB4010F40
:1006E40090003BE0B4E0089000177402F08021EE23
:1006F400C39402400EEED394055008900017E00412
:10070400F0800DEEB40604D2098000900017E4F0E6
:100714002009030207CAC209D29390003CE0146086
:10072400322440605D24C160030207CAD2A6D2A469
:10073400900014E07014D2A2C2A37F1BFE120E011B
:10074400C2A2C2A39000147401F0C2A5D204900006
:10075400398070C2A4900014E0B40114C2A2D2A3E0
:100764007F1B7E00120E01C2A2C2A3900014E4F00B
:10077400C2A5C204C200900015E4F090003904F050
:100784008044120A08C200900015E4F0900012F0B0
:10079400C2A5C20C900014E07014D2A2C2A37F1BA5
:1007A400FE120E01C2A2C2A39000147401F09000C4
:1007B40016E4F0900008E0FF64036004EFB402065E
:1007C4009000087401F0D007D006D005D004D003FF
:1007D400D002D001D000D0D0D082D083D0F0D0E0ED
:0107E40032E2
:03000B00020406E6
:10040600C0E0C0F0C083C082C0D075D000C000C0BC
:1004160001C002C003C004C005C006C007758C2415
:10042600758A45900005E004F07006900004E0042B
:10043600F0C3900005E0943C900004E09400407402
:10044600300453900016E004F0E09403403E900020
:1004560008E0FF640170359000167405F0EF640142
:10046600702A900014E0B40114C2A2D2A37F1B7EAE
:1004760000120E01C2A2C2A3900014E4F0D2A5D2CB
:100486000C9000087402F090001214F0900012E034
:10049600B40103120BF4900004E4F0A3F07F0512FC
:1004A6000CB890000FEFF07F06120CB8900010E425
:1004B600F0A3EFF030A55920872B900003E004F05D
:1004C6007006900002E004F0C3900003E0941E90D2
:1004D6000002E094004039E4F0A3F090000DE0043F
:1004E600F0D206802B30872890000DE06022900025
:1004F60001E004F07006900000E004F0C3900001F3
:10050600E09464900000E09400400590000DE4F053
:10051600900008E06402704D90000DE0FFC3940166
:100526004043EFB40119300616C2A4D2947F0112DB
:100536000CEC7F8C7E00120E01C294D2A4C20690EF
:10054600000DE0C39402401D9000087403F0D20031
:10055600C20690000DE4F07F01FE120E019000121B
:10056600E4F0120AC7900008E0640360030205F98C
:10057600300014C2A4D2947F03120CEC7F787E0064
:10058600120E01C294D2A4300014C2A4D2947F04E5
:10059600120CEC7FBE7E00120E01C294D2A4900013
:1005A60008E0B40303120AC7300014C2A4D2947F31
:1005B60003120CEC7F787E00120E01C294D2A43096
:1005C6000014C2A4D2947F0B120CEC7FBE7E0012E4
:1005D6000E01C294D2A4900008E0B40303120AC725
:1005E600900015E0C394144004E4F0C20090001596
:1005F600E004F0D007D006D005D004D003D002D056
:0E06060001D000D0D0D082D083D0F0D0E0322E
:100BAA00D2A690003A74C8F0A374E0F074C1120A95
:100BBA0071E4F9E490004CF0743A29F582E43400C7
:100BCA00F583E030E706C2907F788004C2907F50B8
:100BDA007E00120C98120C8490004CE004F0E0C3E2
:090BEA00940840D409E9B407CADB
:010BF30022DF
:100BF400D2A690003A74C8F0A374E0F074C2120A4A
:100C040071E4F9E4900044F0743A29F582E4340084
:100C1400F583E030E706C2907F788004C2907F506D
:100C24007E00120C98120C84900044E004F0E0C39F
:090C3400940840D409E9B407CA90
:010C3D002294
:100A0800D2A690003A74C8F0A374E0F0A374C2F0C0
:100A1800E4A3F0A3F0A3F0A3F0120C3EE4F9E490F1
:100A28000041F0743A29F582E43400F583E030E7B8
:100A380006C2907F788004C2907F507E00120DA17C
:100A4800D290743A29F582E43400F583E025E0F089
:100A58007F327E00120DA1900041E004F0E0C394C3
:080A68000840C009E9B407B61B
:010A70002263
:100AC700C2A690003A74C8F0A374E0F0A374C312EE
:100AD7000A72E4F9E4900044F0743A29F582E434A8
:100AE70000F583E030E706C2907F788004C2907FEC
:100AF700507E00120C98120C84900044E004F0E041
:0C0B0700C3940840D409E9B407CAD2A680
:010B130022BF
:100B1400C2A690003A74C8F0A374E0F0A374C4129F
:100B24000A72E4F9E490004DF0743A29F582E43451
:100B340000F583E030E706C2907F788004C2907F9E
:100B4400507E00120C98120C8490004DE004F0E0EA
:0A0B5400C3940840D409E9B407CAAD
:010B5E002274
:100B5F00C2A690003A74C8F0A374E0F0A374C51253
:100B6F000A72E4F9E490004EF0743A29F582E43405
:100B7F0000F583E030E706C2907F788004C2907F53
:100B8F00507E00120C98120C8490004EE004F0E09E
:0A0B9F00C3940840D409E9B407CA62
:010BA9002229
:100E0100EF1FAA0670011E4A60107C137D88ED1D3C
:0A0E1100AA0470011C4A60E880F496
:010E1B0022B4
:100CB800EF6405700743F620C2F8800AEF640670F7
:100CC8002243F640D2F8C2F9D2FA43E180C2FCD2FC
:100CD800FBAEF8EEC413135403FEADE2ED25E02598
:030CE800E02EFFFC
:010CEB0022E6
:100E1C0075DCC090004AE4F0A3741DF090004AE029
:0B0E2C00FCA3E0FDECF5D1EDF5D922B0
:10099A00EF14602214603714604C2403705F9000D7
:1009AA004AE4F0A3740DF090004AE0FCA3E0FDECE9
:1009BA00F5D2EDF5DA2290004A7401F0A3E4F09042
:1009CA00004AE0FCA3E0FDECF5D3EDF5DB22900054
:1009DA004AE4F0A37480F090004AE0FCA3E0FDEC46
:1009EA00F5D5EDF5DD2290004AE4F0A37440F090CD
:0E09FA00004AE0FCA3E0FDECF5D6EDF5DE22B0
:08000300E4FF12099A020E1C31
:0C000E00758921758C24758A45D28C22DE
:10001E00000102030405060708090A0B0C0D0E0F5A
:10002E00101112131415161718191A1B1C1D1E1F4A
:10003E00202122232425262728292A2B2C2D2E2F3A
:10004E003031000102030405060708090A0B0C0DE6
:10005E000E0F101112131415161718191A1B1C1D3A
:10006E001E1F202122232425262728292A2B2C2D2A
:10007E002E2F3031000102030405060708090A0B72
:10008E000C0D0E0F101112131415161718191A1B2A
:10009E001C1D1E1F202122232425262728292A2B1A
:1000AE002C2D2E2F303100010203040506070809FE
:1000BE000A0B0C0D0E0F101112131415161718191A
:1000CE001A1B1C1D1E1F202122232425262728290A
:1000DE002A2B2C2D2E2F303100010203040506078A
:1000EE0008090A0B0C0D0E0F10111213141516170A
:1000FE0018191A1B1C1D1E1F2021222324252627FA
:10010E0028292A2B2C2D2E2F303100010203040515
:10011E00060708090A0B0C0D0E0F101112131415F9
:10012E00161718191A1B1C1D1E1F202122232425E9
:10013E00262728292A2B2C2D2E2F303100010203A1
:10014E000405060708090A0B0C0D0E0F10111213E9
:10015E001415161718191A1B1C1D1E1F20212223D9
:10016E002425262728292A2B2C2D2E2F303100012D
:10017E0002030405060708090A0B0C0D0E0F1011D9
:10018E0012131415161718191A1B1C1D1E1F2021C9
:10019E0022232425262728292A2B2C2D2E2F3031B9
:1001AE00000102030405060708090A0B0C0D0E0FC9
:1001BE00101112131415161718191A1B1C1D1E1FB9
:1001CE00202122232425262728292A2B2C2D2E2FA9
:1001DE003031000102030405060708090A0B0C0D55
:1001EE000E0F101112131415161718191A1B1C1DA9
:1001FE001E1F202122232425262728292A2B2C2D99
:10020E002E2F3031000102030405060708090A0BE0
:10021E000C0D0E0F101112131415161718191A1B98
:10022E001C1D1E1F202122232425262728292A2B88
:10023E002C2D2E2F3031000102030405060708096C
:10024E000A0B0C0D0E0F1011121314151617181988
:10025E001A1B1C1D1E1F2021222324252627282978
:10026E002A2B2C2D2E2F30310001020304050607F8
:10027E0008090A0B0C0D0E0F101112131415161778
:10028E0018191A1B1C1D1E1F202122232425262768
:10029E0028292A2B2C2D2E2F303100010203040584
:1002AE00060708090A0B0C0D0E0F10111213141568
:1002BE00161718191A1B1C1D1E1F20212223242558
:1002CE00262728292A2B2C2D2E2F30310001020310
:1002DE000405060708090A0B0C0D0E0F1011121358
:1002EE001415161718191A1B1C1D1E1F2021222348
:1002FE002425262728292A2B2C2D2E2F303100019C
:10030E0002030405060708090A0B0C0D0E0F101147
:10031E0012131415161718191A1B1C1D1E1F202137
:10032E0022232425262728292A2B2C2D2E2F303127
:10033E00000102030405060708090A0B0C0D0E0F37
:10034E00101112131415161718191A1B1C1D1E1F27
:10035E00202122232425262728292A2B2C2D2E2F17
:10036E003031000102030405060708090A0B0C0DC3
:10037E000E0F101112131415161718191A1B1C1D17
:10038E001E1F202122232425262728292A2B2C2D07
:10039E002E2F3031000102030405060708090A0B4F
:1003AE000C0D0E0F101112131415161718191A1B07
:1003BE001C1D1E1F202122232425262728292A2BF7
:1003CE002C2D2E2F303100010203040506070809DB
:1003DE000A0B0C0D0E0F10111213141516171819F7
:1003EE001A1B1C1D1E1F20212223242526272829E7
:0803FE002A2B2C2D2E2F30318B
:100E4C0053A2BF75985A758920758BC6758DC6D2FD
:020E5C008E22E4
:080E6A008F993099FDC2992215
:100D4C00900047EBF0A3EAF0A3E9F0AF051DEF60CC
:100D5C0019900047E0FBA3E475F001120D36A9F0E1
:0B0D6C00FA120D1DFF120E6A80E1223A
:100D77007DE87C03741D2DF58274003CF583E493B4
:100D8700B50709ED24FFFFEC34FFFE22ED1D7001CE
:090D97001CED4C70DF7E037FE9C6
:010DA0002230
:100DC100E4FDFCC3ED9FEC9E5015E4FBFA0BBB0068
:0F0DD100010ABA01F8BBF4F50DBD00010C80E476
:010DE00022F0
:100DE100E4FDFCC3ED9FEC9E5015E4FBFA0BBB0048
:0F0DF100010AEB64024A70F50DBD00010C80E4AD
:010E000022CF
:050CEC00900044EFF050
:100CF100C2A07F1E7E00120DC1D2A0120DC1E4F967
:100D0100900044E0FFE9C39F5011D2A17FFA7E0019
:0B0D1100120DE1C2A1120DE10980E506
:010D1C0022B4
:100E3700C294C2A1C2A07FE87E03120DE1D2A01224
:050E47000DE1D2942230
:0C0E5E00758911758DFF758B8ED28E2268
:10089500020915E493A3F8E493A34003F68001F25B
:1008A50008DFF48029E493A3F85407240CC8C33364
:1008B500C4540F4420C8834004F456800146F6DF33
:1008C500E4800B01020408102040809007E5E47ED7
:1008D500019360BCA3FF543F30E509541FFEE49328
:1008E500A360010ECF54C025E060A840B8E493A3EF
:1008F500FAE493A3F8E493A3C8C582C8CAC583CA1A
:10090500F0A3C8C582C8CAC583CADFE9DEE780BED1
:01088800006F
:100D1D00BB010689828A83E0225002E722BBFE02D4
:090D2D00E32289828A83E4932207
:100D3600A3F8E0C5F025F0F0E58215827002158370
:060D4600E0C838F0E822CD
:00000001FF
