:0300000002020CED
:0C020C00787FE4F6D8FD758152020253A1
:1003DD00C106C101C102C103C104C105014500012E
:1003ED0046000147000148000126000221000001DE
:1003FD0025001C2700000000000000000000000088
:10040D0000000000000000000000000000000000DF
:10041D00074C000000000000000143000124000112
:0E042D002300C180014900024A000001440181
:1004EC00E4FDFCC3ED9FEC9E5015E4FBFA0BBB0046
:0F04FC00010AEB64174A70F50DBD00010C80E496
:01050B0022CD
:10048600750CAAE4F50BE4F9E50CC2907F507E00EA
:100496001204ECD290E50C25E0F50C7F967E001256
:1004A60004EC09B901E2750CAA7F507E001204EC37
:0B04B600050BE50BC3940340CDD29072
:0104C1002218
:1001380012056712000E12058ED2A4C2A7C293D26E
:10014800A9D2ABD2BBD2AF120003D290C2947F0621
:100158001202988E4A8F4BD2947F041204C27FC831
:100168007E0012054CC294D201300224E545C394A6
:1001780002501D0545D2947F011204C27FA07E0063
:1001880012054CC294C2A47F0A7E0012054CD2A468
:10019800300324E546C39402501D0546D2947F0BD4
:1001A8001204C27F967E0012054CC2A47F147E0002
:1001B80012054CD2A4C294E544B40120D3E54B9473
:1001C8005AE54A94035015E4F544D2947F07120483
:1001D800C27F787E0012054CC294808DE5447089F8
:1001E800C3E54B9477E54A940350030201717544C3
:1001F80001D2947F061204C27F787E0012054CC299
:0402080094020171EA
:03001B0002001EC2
:10001E00C0E0C0F0C083C082C0D075D000C000C0A8
:10002E0001C002C003C004C005C006C007758DFF25
:10003E00758B8E20910E0543C200E5436496705178
:10004E00F543804D200039D200E543D3943C401255
:10005E00E543D39464500BE52425E0F5245324FEA8
:10006E008010E543D394644010E52425E0F5244345
:10007E00240105237549008002054975430080114E
:10008E000549E549C394784008752300D2007526CA
:10009E0000E52364087044F523744C2526F8A62445
:1000AE00E526700AE54CB4C805752601802DE526B7
:1000BE00B4010AE54DB4E005752602801EE526C39F
:1000CE009402400BE526D3940550040526800CE5DA
:1000DE0026B40604D2068000752600300631C2060C
:1000EE00C293E54E243D601D0470247525007545B0
:1000FE0000C202754600C203C2A47F0A7E0012052A
:10010E004CD2A4800A752500D203754500C202D0D8
:10011E0007D006D005D004D003D002D001D000D035
:0A012E00D0D082D083D0F0D0E032B0
:03000B0002030CE1
:10030C00C0E0C0F0C083C082C0D075D000C000C0B7
:10031C0001C002C003C004C005C006C007758C2410
:10032C00758A450522E52270020521C3943CE5211E
:10033C009400402030010E12037BD2930525E52555
:10034C00B40602D2027F061202988E4A8F4B752198
:10035C0000752200D007D006D005D004D003D002FF
:0F036C00D001D000D0D0D082D083D0F0D0E032FA
:10037B00C2A6D2A7754CC8754DE0754EC1E4F54FBA
:10038B00F550F551F552120486E4F509E4F50A74BB
:10039B004C2509F8E630E706C2907F788004C290BE
:1003AB007F507E001204ECD290744C2509F8C000EB
:1003BB00E625E0D000F67F327E001204EC050AE55C
:1003CB000AC3940840C90509E509C3940740BDC297
:0103DB00A77A
:0103DC0022FE
:10054C00EF1FAA0670011E4A60107C137D88ED1DFA
:0A055C00AA0470011C4A60E880F454
:010566002272
:10029800E4FAEF6405703343F620C2F8C2F9D2FAE3
:1002A80043E180C2FCD2FBADF8EDC413135403FD47
:1002B800AFE2AB07EB7E007802C333CE33CED8F97A
:1002C8007C002DFBEC3EAF03FE22EF640670344346
:1002D800F640D2F8C2F9D2FA43E180C2FCD2FBADB3
:1002E800F8EDC413135403FDAFE27A00AB07EB7EBD
:1002F800007802C333CE33CED8F97C002DFBEC3E18
:03030800FEAF0342
:01030B0022CF
:10057C0075DCC0750D00750E1DE50DF5D1E50EF59C
:02058C00D92272
:10043C00EF1460191460251460312403703B750DA2
:10044C0000750E0DE50DF5D2E50EF5DA22750D01F0
:10045C00750E00E50DF5D3E50EF5DB22750D007577
:10046C000E80E50DF5D5E50EF5DD22750D00750E4A
:0A047C0040E50DF5D6E50EF5DE2291
:08000300E4FF12043C02057C3D
:0C000E00758911758C24758A45D28C22EE
:10050C00E4FDFCC3ED9FEC9E5015E4FBFA0BBB0025
:0F051C00010ABA02F8BB58F50DBD00010C80E4CE
:01052B0022AD
:10052C00E4FDFCC3ED9FEC9E5015E4FBFA0BBB0005
:0F053C00010AEB64024A70F50DBD00010C80E46A
:01054B00228D
:0204C2008F08A1
:1004C400C2A07F287E0012050CD2A012050CE4F90C
:1004D400E9C395085011D2A17FFA7E0012052CC2FF
:0704E400A112052C0980E9BB
:0104EB0022EE
:10056700C294C2A1C2A07FE87E0312052CD2A012BA
:05057700052CD29422C6
:0C058E00758911758DFF758B8ED28E2241
:10021800020138E493A3F8E493A34003F68001F2C3
:1002280008DFF48029E493A3F85407240CC8C333E7
:10023800C4540F4420C8834004F456800146F6DFB6
:10024800E4800B01020408102040809003DDE47E66
:10025800019360BCA3FF543F30E509541FFEE493AB
:10026800A360010ECF54C025E060A840B8E493A372
:10027800FAE493A3F8E493A3C8C582C8CAC583CA9D
:10028800F0A3C8C582C8CAC583CADFE9DEE780BE55
:01043B0000C0
:00000001FF
