:030000000206FDF8
:0C06FD00787FE4F6D8FD758159020744AF
:1007FD00C104C100C109C103C105C106C107C108BA
:10080D00014C00014D00014E00014F00C1010127B7
:10081D0000012A00012B0002220000022C00000121
:10082D0029001C2E00000000000000000000000048
:10083D0000000000000000000000000000000000AB
:10084D00075300000000000000014A0001280001CC
:10085D002600C18201500002510000022400000157
:02086D004B013D
:040A92007F967E00CD
:100A9600E4FDFCC3ED9FEC9E5015E4FBFA0BBB0096
:0F0AA600010AEB64174A70F50DBD00010C80E4E6
:010AB500221E
:090A2700E4F556F557F558F559B0
:100A3000750FAAE4F50EE4F9E50FC2907F507E0031
:100A4000120A96D290E50F25E0F50F120A9209B925
:100A500008E6750FAA7F507E00120A96050EE50E75
:070A6000C3940340D1D290C2
:010A6700226C
:10040600120B4E12000E120B87D283D284C292D2E6
:10041600A4C293D2A9D2ABD2BBD2AF120003D29060
:10042600C2947F061207898E518F523083030204CD
:10043600E47F1E7E00120B1A3083030204E42004BC
:100446004BD2947F04120A687FC87E00120B1AC230
:1004560094C2A6C3E552945AE55194034006D29439
:100466007F068004D2947F07120A687FC87E001236
:100476000B1AC294120937120A92120937120A92FB
:10048600120937120A92D203D2048052D2947F05FF
:10049600120A687F787E00120B1AC294D2A4C3E5B2
:1004A60052945AE55194034006D2947F068004D2B2
:1004B600947F07120A687F787E00120B1AC294C2D4
:1004C6000312098A120A9212098A120A9212098AD8
:1004D600120A92C204E4F54CC205F54DC206208408
:1004E600347F147E00120B1A20842A20000D30045B
:1004F6000AD2A6D200D2947F02800E3000173004B2
:1005060014C2A6C200D2947F03120A687F8C7E00B2
:10051600120B1AC29430053FE54CC39401503805BE
:100526004CD2947F01120A687FA07E00120B1AC279
:1005360094C2A47F0A7E00120B1AD2A4D2947F0121
:10054600120A687FA07E00120B1AC294C2A47F0A08
:100556007E00120B1AD2A430063BE54DC39402501E
:1005660034054DD2947F0B120A687F967E00120BDB
:100576001AC2A47F147E00120B1AD2A47F0B120A91
:10058600687F967E00120B1AC2A47F147E00120B9F
:100596001AD2A4C294C3E5529477E5519403400459
:1005A600D2928002C292200403020431E54BB401C8
:1005B60021D3E552945AE55194035016E4F54BD2F3
:1005C600947F07120A687F787E00120B1AC2940283
:1005D6000431E54B6003020431C3E5529477E551DB
:1005E60094035003020431754B01D2947F06120A1C
:0D05F600687F787E00120B1AC29402043157
:03001B00020603D7
:10060300C0E0C0D075D000C000758DFF758B8E2003
:10061300910E054AC202E54A64967051F54A804D2F
:10062300200239D202E54AD3943C4012E54AD394DE
:1006330064500BE52825E0F5285328FE8010E54A91
:10064300D394644010E52825E0F5284328010526C6
:1006530075500080020550754A0080110550E55021
:10066300C394784008752600D202752B00E52664F2
:10067300087044F5267453252BF8A628E52B700A39
:10068300E553B4C805752B01802DE52BB4010AE5AC
:1006930054B4E005752B02801EE52BC39402400B76
:1006A300E52BD394055004052B800CE52BB40604ED
:1006B300D2098000752B00300939C209D293E55560
:1006C300243D6019146020146024240370257529C7
:1006D30000754C00C205754D00C2068016752900D1
:1006E300D206754C03800C752900D2078005752945
:0A06F30000D208D000D0D0D0E032D1
:03000B0002087078
:10087000C0E0C0F0C083C082C0D075D000C000C04E
:1008800001C002C003C004C005C006C007758C24A7
:10089000758A450523E52370020522C3943CE522B1
:1008A000940040233003111208E20529E529C3947E
:1008B000064005752907D2057F061207898E518FDC
:1008C00052752200752300D007D006D005D004D081
:1008D00003D002D001D000D0D0D082D083D0F0D0CD
:0208E000E03204
:100937007553C87554E0E4F555120A28E4F508E440
:10094700F50974532508F8E630E706C2907F6E80F4
:1009570004C2907F467E00120A96D29074532508EF
:10096700F8C000E625E0D000F67F327E00120A9636
:100977000509E509C3940840C90508E508C39407B4
:0209870040BD71
:01098900224B
:10098A007553C87554E0755501120A27E4F508E451
:10099A00F50974532508F8E630E706C2907F6E80A1
:1009AA0004C2907F467E00120A96D290745325089C
:1009BA00F8C000E625E0D000F67F327E00120A96E3
:1009CA000509E509C3940840C90508E508C3940761
:0209DA0040BD1E
:0109DC0022F8
:1008E200C2A67553C87554E07555C1120A27E4F5BE
:1008F2000CE4F50D7453250CF8E630E706C2907F40
:10090200788004C2907F507E00120A96D29074536F
:10091200250CF8C000E625E0D000F67F327E0012FA
:100922000A96050DE50DC3940840C9050CE50CC3F4
:04093200940740BD29
:01093600229E
:100B1A00EF1FAA0670011E4A60107C137D88ED1D26
:0A0B2A00AA0470011C4A60E880F480
:010B3400229E
:10078900E4FAEF6405703343F620C2F8C2F9D2FAED
:1007990043E180C2FCD2FBADF8EDC413135403FD51
:1007A900AFE2AB07EB7E007802C333CE33CED8F984
:1007B9007C002DFBEC3EAF03FE22EF640670344350
:1007C900F640D2F8C2F9D2FA43E180C2FCD2FBADBD
:1007D900F8EDC413135403FDAFE27A00AB07EB7EC7
:1007E900007802C333CE33CED8F97C002DFBEC3E22
:0307F900FEAF034D
:0107FC0022DA
:100B630075DCC075130075141DE513F5D1E514F597
:020B7300D92285
:1009DD00EF1460191460251460312403703B7513F6
:1009ED000075140DE513F5D2E514F5DA2275130132
:1009FD00751400E513F5D3E514F5DB2275130075B9
:100A0D001480E513F5D5E514F5DD22751300751485
:0A0A1D0040E513F5D6E514F5DE22DE
:08000300E4FF1209DD020B63AA
:0C000E00758911758C24758A45D28C22EE
:10001E00000102030405060708090A0B0C0D0E0F5A
:10002E00101112131415161718191A1B1C1D1E1F4A
:10003E00202122232425262728292A2B2C2D2E2F3A
:10004E003031000102030405060708090A0B0C0DE6
:10005E000E0F101112131415161718191A1B1C1D3A
:10006E001E1F202122232425262728292A2B2C2D2A
:10007E002E2F3031000102030405060708090A0B72
:10008E000C0D0E0F101112131415161718191A1B2A
:10009E001C1D1E1F202122232425262728292A2B1A
:1000AE002C2D2E2F303100010203040506070809FE
:1000BE000A0B0C0D0E0F101112131415161718191A
:1000CE001A1B1C1D1E1F202122232425262728290A
:1000DE002A2B2C2D2E2F303100010203040506078A
:1000EE0008090A0B0C0D0E0F10111213141516170A
:1000FE0018191A1B1C1D1E1F2021222324252627FA
:10010E0028292A2B2C2D2E2F303100010203040515
:10011E00060708090A0B0C0D0E0F101112131415F9
:10012E00161718191A1B1C1D1E1F202122232425E9
:10013E00262728292A2B2C2D2E2F303100010203A1
:10014E000405060708090A0B0C0D0E0F10111213E9
:10015E001415161718191A1B1C1D1E1F20212223D9
:10016E002425262728292A2B2C2D2E2F303100012D
:10017E0002030405060708090A0B0C0D0E0F1011D9
:10018E0012131415161718191A1B1C1D1E1F2021C9
:10019E0022232425262728292A2B2C2D2E2F3031B9
:1001AE00000102030405060708090A0B0C0D0E0FC9
:1001BE00101112131415161718191A1B1C1D1E1FB9
:1001CE00202122232425262728292A2B2C2D2E2FA9
:1001DE003031000102030405060708090A0B0C0D55
:1001EE000E0F101112131415161718191A1B1C1DA9
:1001FE001E1F202122232425262728292A2B2C2D99
:10020E002E2F3031000102030405060708090A0BE0
:10021E000C0D0E0F101112131415161718191A1B98
:10022E001C1D1E1F202122232425262728292A2B88
:10023E002C2D2E2F3031000102030405060708096C
:10024E000A0B0C0D0E0F1011121314151617181988
:10025E001A1B1C1D1E1F2021222324252627282978
:10026E002A2B2C2D2E2F30310001020304050607F8
:10027E0008090A0B0C0D0E0F101112131415161778
:10028E0018191A1B1C1D1E1F202122232425262768
:10029E0028292A2B2C2D2E2F303100010203040584
:1002AE00060708090A0B0C0D0E0F10111213141568
:1002BE00161718191A1B1C1D1E1F20212223242558
:1002CE00262728292A2B2C2D2E2F30310001020310
:1002DE000405060708090A0B0C0D0E0F1011121358
:1002EE001415161718191A1B1C1D1E1F2021222348
:1002FE002425262728292A2B2C2D2E2F303100019C
:10030E0002030405060708090A0B0C0D0E0F101147
:10031E0012131415161718191A1B1C1D1E1F202137
:10032E0022232425262728292A2B2C2D2E2F303127
:10033E00000102030405060708090A0B0C0D0E0F37
:10034E00101112131415161718191A1B1C1D1E1F27
:10035E00202122232425262728292A2B2C2D2E2F17
:10036E003031000102030405060708090A0B0C0DC3
:10037E000E0F101112131415161718191A1B1C1D17
:10038E001E1F202122232425262728292A2B2C2D07
:10039E002E2F3031000102030405060708090A0B4F
:1003AE000C0D0E0F101112131415161718191A1B07
:1003BE001C1D1E1F202122232425262728292A2BF7
:1003CE002C2D2E2F303100010203040506070809DB
:1003DE000A0B0C0D0E0F10111213141516171819F7
:1003EE001A1B1C1D1E1F20212223242526272829E7
:0803FE002A2B2C2D2E2F30318B
:100B750053A2BF75985A758920758BC6758DC6D2D7
:020B85008E22BE
:080B93008F993099FDC29922EF
:100AB6008B108A118912AF051DEF6017AB10051256
:100AC600E512AA117002051114F9120B35FF120B6B
:040AD6009380E32204
:100ADA00E4FDFCC3ED9FEC9E5015E4FBFA0BBB0052
:0F0AEA00010ABA02F8BB58F50DBD00010C80E4FB
:010AF90022DA
:100AFA00E4FDFCC3ED9FEC9E5015E4FBFA0BBB0032
:0F0B0A00010AEB64024A70F50DBD00010C80E496
:010B190022B9
:020A68008F08F5
:100A6A00C2A07F287E00120ADAD2A0120ADAE4F9BA
:100A7A00E9C395085011D2A17FFA7E00120AFAC280
:070A8A00A1120AFA0980E93C
:010A91002242
:100B4E00C294C2A1C2A07FE87E03120AFAD2A012FA
:050B5E000AFAD2942206
:0C0B8700758911758DFF758B8ED28E2242
:10070900020406E493A3F8E493A34003F68001F2FC
:1007190008DFF48029E493A3F85407240CC8C333F1
:10072900C4540F4420C8834004F456800146F6DFC0
:10073900E4800B01020408102040809007FDE47E4C
:10074900019360BCA3FF543F30E509541FFEE493B5
:10075900A360010ECF54C025E060A840B8E493A37C
:10076900FAE493A3F8E493A3C8C582C8CAC583CAA7
:10077900F0A3C8C582C8CAC583CADFE9DEE780BE5F
:01086F000088
:100B3500BB010689828A83E0225002E722BBFE02BE
:090B4500E32289828A83E49322F1
:00000001FF
