:030000000206EB0A
:0C06EB00787FE4F6D8FD758159020732D3
:1007EB00C104C100C109C103C105C106C107C108CC
:1007FB00014C00014D00014E00014F00C1010127CA
:10080B0000012A00012B0002220000022C00000133
:10081B0029001C2E0000000000000000000000005A
:10082B0000000000000000000000000000000000BD
:10083B00075300000000000000014A0001280001DE
:10084B002600C18201500002510000022400000169
:02085B004B014F
:040A82007F967E00DD
:100A8600E4FDFCC3ED9FEC9E5015E4FBFA0BBB00A6
:0F0A9600010AEB64174A70F50DBD00010C80E4F6
:010AA500222E
:090A1500E4F556F557F558F559C2
:100A1E00750FAAE4F50EE4F9E50FC2907F507E0043
:100A2E00120A86D290E50F25E0F50F120A8209B957
:100A3E0008E6750FAA120A82050EE50EC39403404E
:0A0A4E00D5D2907F507E00020A8688
:10040600120B3E12000E120B77D283D284C292D206
:10041600A4C293D2A9D2ABD2BBD2AF120003D29060
:10042600C2947F061207778E518F523083030204DF
:10043600D57F1E7E00120B0A3083030204D52004EA
:100446003CD2947F04120A587FC87E00120B0AC25F
:1004560094C2A6C3E552945AE55194034006D29439
:100466007F068004D2947F07120A587FC87E001246
:100476000B0AC294120925D203D2048052D2947F69
:1004860005120A587F787E00120B0AC294D2A4C3C2
:10049600E552945AE55194034006D2947F068004AF
:1004A600D2947F07120A587F787E00120B0AC294F4
:1004B600C203120978120A82120978120A821209F4
:1004C60078120A82C204E4F54CC205F54DC2062034
:1004D60084347F147E00120B0A20842A20000D30FB
:1004E600040AD2A6D200D2947F02800E30001730C2
:1004F6000414C2A6C200D2947F03120A587F8C7ECF
:1005060000120B0AC29430053FE54CC394015038E3
:10051600054CD2947F01120A587FA07E00120B0A66
:10052600C294C2A47F0A7E00120B0AD2A4D2947F80
:1005360001120A587FA07E00120B0AC294C2A47F41
:100546000A7E00120B0AD2A430063BE54DC3940185
:100556005034054DD2947F0A120A587F967E0012B7
:100566000B0AC2A47F147E00120B0AD2A47F0A12C1
:100576000A587F967E00120B0AC2A47F147E0012D0
:100586000B0AD2A4C294C3E5529477E55194034072
:1005960004D2928002C292200403020431E54BB4D5
:1005A6000121D3E552945AE55194035016E4F54BD4
:1005B600D2947F07120A587F787E00120B0AC294E3
:1005C600020431E54B6003020431C3E5529477E53A
:1005D6005194035003020431754B01D2947F0612E5
:0E05E6000A587F787E00120B0AC2940204317C
:03001B000205F4E7
:1005F400C0E0C0D075D000C000758DFF758B8E2013
:10060400910E054AC202E54A64967051F54A804D3E
:10061400200239D202E54AD3943C4012E54AD394ED
:1006240064500BE52825E0F5285328FE8010E54AA0
:10063400D394644010E52825E0F5284328010526D5
:1006440075500080020550754A0080110550E55030
:10065400C394784008752600D202752B00E5266401
:10066400087044F5267453252BF8A628E52B700A48
:10067400E553B4C805752B01802DE52BB4010AE5BB
:1006840054B4E005752B02801EE52BC39402400B85
:10069400E52BD394055004052B800CE52BB40604FC
:1006A400D2098000752B00300936C209D293E55572
:1006B400243D601914601D146021240370227529DF
:1006C40000754C00C205754D00C2068013D2067534
:1006D4004C03800C752900D2078005752900D208C7
:0706E400D000D0D0D0E032BD
:03000B0002085E8A
:10085E00C0E0C0F0C083C082C0D075D000C000C060
:10086E0001C002C003C004C005C006C007758C24B9
:10087E00758A450523E52370020522C3943CE522C3
:10088E00940040233003111208D00529E529C394A2
:10089E00064005752907D2057F061207778E518F00
:1008AE0052752200752300D007D006D005D004D093
:1008BE0003D002D001D000D0D0D082D083D0F0D0DF
:0208CE00E03216
:100925007553C87554E0E4F555120A16E4F508E464
:10093500F50974532508F8E630E706C2907F6E8006
:1009450004C2907F467E00120A86D2907453250811
:10095500F8C000E625E0D000F67F327E00120A8658
:100965000509E509C3940840C90508E508C39407C6
:0209750040BD83
:01097700225D
:100978007553C87554E0755501120A15E4F508E475
:10098800F50974532508F8E630E706C2907F6E80B3
:1009980004C2907F467E00120A86D29074532508BE
:1009A800F8C000E625E0D000F67F327E00120A8605
:1009B8000509E509C3940840C90508E508C3940773
:0209C80040BD30
:0109CA00220A
:1008D000C2A67553C87554E07555C1120A15E4F5E2
:1008E0000CE4F50D7453250CF8E630E706C2907F52
:1008F0006E8004C2907F467E00120A86D2907453A6
:10090000250CF8C000E625E0D000F67F327E00120C
:100910000A86050DE50DC3940840C9050CE50CC316
:04092000940740BD3B
:0109240022B0
:100B0A00EF1FAA0670011E4A60107C137D88ED1D36
:0A0B1A00AA0470011C4A60E880F490
:010B240022AE
:10077700E4FAEF6405703343F620C2F8C2F9D2FAFF
:1007870043E180C2FCD2FBADF8EDC413135403FD63
:10079700AFE2AB07EB7E007802C333CE33CED8F996
:1007A7007C002DFBEC3EAF03FE22EF640670344362
:1007B700F640D2F8C2F9D2FA43E180C2FCD2FBADCF
:1007C700F8EDC413135403FDAFE27A00AB07EB7ED9
:1007D700007802C333CE33CED8F97C002DFBEC3E34
:0307E700FEAF035F
:0107EA0022EC
:100B530075DCC075130075141DE513F5D1E514F5A7
:020B6300D92295
:1009CB00EF1460191460251460312403703B751308
:1009DB000075140DE513F5D2E514F5DA2275130144
:1009EB00751400E513F5D3E514F5DB2275130075CB
:1009FB001480E513F5D5E514F5DD22751300751498
:0A0A0B0040E513F5D6E514F5DE22F0
:08000300E4FF1209CB020B53CC
:0C000E00758911758C24758A45D28C22EE
:10001E00000102030405060708090A0B0C0D0E0F5A
:10002E00101112131415161718191A1B1C1D1E1F4A
:10003E00202122232425262728292A2B2C2D2E2F3A
:10004E003031000102030405060708090A0B0C0DE6
:10005E000E0F101112131415161718191A1B1C1D3A
:10006E001E1F202122232425262728292A2B2C2D2A
:10007E002E2F3031000102030405060708090A0B72
:10008E000C0D0E0F101112131415161718191A1B2A
:10009E001C1D1E1F202122232425262728292A2B1A
:1000AE002C2D2E2F303100010203040506070809FE
:1000BE000A0B0C0D0E0F101112131415161718191A
:1000CE001A1B1C1D1E1F202122232425262728290A
:1000DE002A2B2C2D2E2F303100010203040506078A
:1000EE0008090A0B0C0D0E0F10111213141516170A
:1000FE0018191A1B1C1D1E1F2021222324252627FA
:10010E0028292A2B2C2D2E2F303100010203040515
:10011E00060708090A0B0C0D0E0F101112131415F9
:10012E00161718191A1B1C1D1E1F202122232425E9
:10013E00262728292A2B2C2D2E2F303100010203A1
:10014E000405060708090A0B0C0D0E0F10111213E9
:10015E001415161718191A1B1C1D1E1F20212223D9
:10016E002425262728292A2B2C2D2E2F303100012D
:10017E0002030405060708090A0B0C0D0E0F1011D9
:10018E0012131415161718191A1B1C1D1E1F2021C9
:10019E0022232425262728292A2B2C2D2E2F3031B9
:1001AE00000102030405060708090A0B0C0D0E0FC9
:1001BE00101112131415161718191A1B1C1D1E1FB9
:1001CE00202122232425262728292A2B2C2D2E2FA9
:1001DE003031000102030405060708090A0B0C0D55
:1001EE000E0F101112131415161718191A1B1C1DA9
:1001FE001E1F202122232425262728292A2B2C2D99
:10020E002E2F3031000102030405060708090A0BE0
:10021E000C0D0E0F101112131415161718191A1B98
:10022E001C1D1E1F202122232425262728292A2B88
:10023E002C2D2E2F3031000102030405060708096C
:10024E000A0B0C0D0E0F1011121314151617181988
:10025E001A1B1C1D1E1F2021222324252627282978
:10026E002A2B2C2D2E2F30310001020304050607F8
:10027E0008090A0B0C0D0E0F101112131415161778
:10028E0018191A1B1C1D1E1F202122232425262768
:10029E0028292A2B2C2D2E2F303100010203040584
:1002AE00060708090A0B0C0D0E0F10111213141568
:1002BE00161718191A1B1C1D1E1F20212223242558
:1002CE00262728292A2B2C2D2E2F30310001020310
:1002DE000405060708090A0B0C0D0E0F1011121358
:1002EE001415161718191A1B1C1D1E1F2021222348
:1002FE002425262728292A2B2C2D2E2F303100019C
:10030E0002030405060708090A0B0C0D0E0F101147
:10031E0012131415161718191A1B1C1D1E1F202137
:10032E0022232425262728292A2B2C2D2E2F303127
:10033E00000102030405060708090A0B0C0D0E0F37
:10034E00101112131415161718191A1B1C1D1E1F27
:10035E00202122232425262728292A2B2C2D2E2F17
:10036E003031000102030405060708090A0B0C0DC3
:10037E000E0F101112131415161718191A1B1C1D17
:10038E001E1F202122232425262728292A2B2C2D07
:10039E002E2F3031000102030405060708090A0B4F
:1003AE000C0D0E0F101112131415161718191A1B07
:1003BE001C1D1E1F202122232425262728292A2BF7
:1003CE002C2D2E2F303100010203040506070809DB
:1003DE000A0B0C0D0E0F10111213141516171819F7
:1003EE001A1B1C1D1E1F20212223242526272829E7
:0803FE002A2B2C2D2E2F30318B
:100B650053A2BF75985A758920758BC6758DC6D2E7
:020B75008E22CE
:080B83008F993099FDC29922FF
:100AA6008B108A118912AF051DEF6017AB10051266
:100AB600E512AA117002051114F9120B25FF120B8B
:040AC6008380E32224
:100ACA00E4FDFCC3ED9FEC9E5015E4FBFA0BBB0062
:0F0ADA00010ABA02F8BB58F50DBD00010C80E40B
:010AE90022EA
:100AEA00E4FDFCC3ED9FEC9E5015E4FBFA0BBB0042
:0F0AFA00010AEB64024A70F50DBD00010C80E4A7
:010B090022C9
:020A58008F0805
:100A5A00C2A07F287E00120ACAD2A0120ACAE4F9EA
:100A6A00E9C395085011D2A17FFA7E00120AEAC2A0
:070A7A00A1120AEA0980E95C
:010A81002252
:100B3E00C294C2A1C2A07FE87E03120AEAD2A0121A
:050B4E000AEAD2942226
:0C0B7700758911758DFF758B8ED28E2252
:1006F700020406E493A3F8E493A34003F68001F20F
:1007070008DFF48029E493A3F85407240CC8C33303
:10071700C4540F4420C8834004F456800146F6DFD2
:10072700E4800B01020408102040809007EBE47E70
:10073700019360BCA3FF543F30E509541FFEE493C7
:10074700A360010ECF54C025E060A840B8E493A38E
:10075700FAE493A3F8E493A3C8C582C8CAC583CAB9
:10076700F0A3C8C582C8CAC583CADFE9DEE780BE71
:01085D00009A
:100B2500BB010689828A83E0225002E722BBFE02CE
:090B3500E32289828A83E4932201
:00000001FF
