:030000000206F8FD
:0C06F800787FE4F6D8FD75815902073FB9
:1007F800C104C100C109C103C105C106C107C108BF
:10080800014C00014D00014E00014F00C1010127BC
:1008180000012A00012B0002220000022C00000126
:1008280029001C2E0000000000000000000000004D
:1008380000000000000000000000000000000000B0
:10084800075300000000000000014A0001280001D1
:100858002600C1820150000251000002240000015C
:020868004B0142
:040A8F007F967E00D0
:100A9300E4FDFCC3ED9FEC9E5015E4FBFA0BBB0099
:0F0AA300010AEB64174A70F50DBD00010C80E4E9
:010AB2002221
:090A2200E4F556F557F558F559B5
:100A2B00750FAAE4F50EE4F9E50FC2907F507E0036
:100A3B00120A93D290E50F25E0F50F120A8F09B930
:100A4B0008E6750FAA120A8F050EE50EC394034034
:0A0A5B00D5D2907F507E00020A936E
:10040600120B4B12000E120B84D283D284C292D2EC
:10041600A4C293D2A9D2ABD2BBD2AF120003D29060
:10042600C2947F061207848E518F523083030204D2
:10043600D57F1E7E00120B173083030204D52004DD
:100446003CD2947F04120A657FC87E00120B17C245
:1004560094C2A6C3E552945AE55194034006D29439
:100466007F068004D2947F07120A657FC87E001239
:100476000B17C294120932D203D2048052D2947F4F
:1004860005120A657F787E00120B17C294D2A4C3A8
:10049600E552945AE55194034006D2947F068004AF
:1004A600D2947F07120A657F787E00120B17C294DA
:1004B600C203120985120A8F120985120A8F1209C0
:1004C60085120A8FC204E4F54CC205F54DC206201A
:1004D60084347F147E00120B1720842A20000D30EE
:1004E600040AD2A6D200D2947F02800E30001730C2
:1004F6000414C2A6C200D2947F03120A657F8C7EC2
:1005060000120B17C29430053FE54CC394015038D6
:10051600054CD2947F01120A657FA07E00120B174C
:10052600C294C2A47F0A7E00120B17D2A4D2947F73
:1005360001120A657FA07E00120B17C294C2A47F27
:100546000A7E00120B17D2A430063BE54DC3940178
:100556005034054DD2947F0A120A657F967E0012AA
:100566000B17C2A47F147E00120B17D2A47F0A12A7
:100576000A657F967E00120B17C2A47F147E0012B6
:100586000B17D2A4C294C3E5529477E55194034065
:1005960004D2928002C29230043BE54BB40114D3DC
:1005A600E552945AE55194035009E4F54BD2947FF1
:1005B600078016E54B701EC3E5529477E551940308
:1005C6004013754B01D2947F06120A657F787E0030
:1005D600120B17C294E52564507004E52464466046
:0D05E60003020431C293F524F5250204310F
:03001B000205F3E8
:1005F300C0E0C0D075D000C000758DFF758B8E3004
:10060300930B0525E525700205240206F120910EC2
:10061300054AC202E54A64967051F54A804D2002AC
:1006230039D202E54AD3943C4012E54AD39464504C
:100633000BE52825E0F5285328FE8010E54AD394DE
:10064300644010E52825E0F5284328010526755068
:100653000080020550754A0080110550E550C3948F
:10066300784008752600D202752B00E526640870D1
:1006730044F5267453252BF8A628E52B700AE55379
:10068300B4C805752B01802DE52BB4010AE554B4DC
:10069300E005752B02801EE52BC39402400BE52B6E
:1006A300D394055004052B800CE52BB40604D20922
:1006B3008000752B00300936C209D293E555243DDD
:1006C300601914601D1460212403702275290075BC
:1006D3004C00C205754D00C2068013D206754C034B
:1006E300800C752900D2078005752900D208D00037
:0506F300D0D0D0E03280
:03000B0002086B7D
:10086B00C0E0C0F0C083C082C0D075D000C000C053
:10087B0001C002C003C004C005C006C007758C24AC
:10088B00758A450523E52370020522C3943CE522B6
:10089B00940040233003111208DD0529E529C39488
:1008AB00064005752907D2057F061207848E518FE6
:1008BB0052752200752300D007D006D005D004D086
:1008CB0003D002D001D000D0D0D082D083D0F0D0D2
:0208DB00E03209
:100932007553C87554E0E4F555120A23E4F508E44A
:10094200F50974532508F8E630E706C2907F6E80F9
:1009520004C2907F467E00120A93D29074532508F7
:10096200F8C000E625E0D000F67F327E00120A933E
:100972000509E509C3940840C90508E508C39407B9
:0209820040BD76
:010984002250
:100985007553C87554E0755501120A22E4F508E45B
:10099500F50974532508F8E630E706C2907F6E80A6
:1009A50004C2907F467E00120A93D29074532508A4
:1009B500F8C000E625E0D000F67F327E00120A93EB
:1009C5000509E509C3940840C90508E508C3940766
:0209D50040BD23
:0109D70022FD
:1008DD00C2A67553C87554E07555C1120A22E4F5C8
:1008ED000CE4F50D7453250CF8E630E706C2907F45
:1008FD006E8004C2907F467E00120A93D29074538C
:10090D00250CF8C000E625E0D000F67F327E0012FF
:10091D000A93050DE50DC3940840C9050CE50CC3FC
:04092D00940740BD2E
:0109310022A3
:100B1700EF1FAA0670011E4A60107C137D88ED1D29
:0A0B2700AA0470011C4A60E880F483
:010B310022A1
:10078400E4FAEF6405703343F620C2F8C2F9D2FAF2
:1007940043E180C2FCD2FBADF8EDC413135403FD56
:1007A400AFE2AB07EB7E007802C333CE33CED8F989
:1007B4007C002DFBEC3EAF03FE22EF640670344355
:1007C400F640D2F8C2F9D2FA43E180C2FCD2FBADC2
:1007D400F8EDC413135403FDAFE27A00AB07EB7ECC
:1007E400007802C333CE33CED8F97C002DFBEC3E27
:0307F400FEAF0352
:0107F70022DF
:100B600075DCC075130075141DE513F5D1E514F59A
:020B7000D92288
:1009D800EF1460191460251460312403703B7513FB
:1009E8000075140DE513F5D2E514F5DA2275130137
:1009F800751400E513F5D3E514F5DB2275130075BE
:100A08001480E513F5D5E514F5DD2275130075148A
:0A0A180040E513F5D6E514F5DE22E3
:08000300E4FF1209D8020B60B2
:0C000E00758911758C24758A45D28C22EE
:10001E00000102030405060708090A0B0C0D0E0F5A
:10002E00101112131415161718191A1B1C1D1E1F4A
:10003E00202122232425262728292A2B2C2D2E2F3A
:10004E003031000102030405060708090A0B0C0DE6
:10005E000E0F101112131415161718191A1B1C1D3A
:10006E001E1F202122232425262728292A2B2C2D2A
:10007E002E2F3031000102030405060708090A0B72
:10008E000C0D0E0F101112131415161718191A1B2A
:10009E001C1D1E1F202122232425262728292A2B1A
:1000AE002C2D2E2F303100010203040506070809FE
:1000BE000A0B0C0D0E0F101112131415161718191A
:1000CE001A1B1C1D1E1F202122232425262728290A
:1000DE002A2B2C2D2E2F303100010203040506078A
:1000EE0008090A0B0C0D0E0F10111213141516170A
:1000FE0018191A1B1C1D1E1F2021222324252627FA
:10010E0028292A2B2C2D2E2F303100010203040515
:10011E00060708090A0B0C0D0E0F101112131415F9
:10012E00161718191A1B1C1D1E1F202122232425E9
:10013E00262728292A2B2C2D2E2F303100010203A1
:10014E000405060708090A0B0C0D0E0F10111213E9
:10015E001415161718191A1B1C1D1E1F20212223D9
:10016E002425262728292A2B2C2D2E2F303100012D
:10017E0002030405060708090A0B0C0D0E0F1011D9
:10018E0012131415161718191A1B1C1D1E1F2021C9
:10019E0022232425262728292A2B2C2D2E2F3031B9
:1001AE00000102030405060708090A0B0C0D0E0FC9
:1001BE00101112131415161718191A1B1C1D1E1FB9
:1001CE00202122232425262728292A2B2C2D2E2FA9
:1001DE003031000102030405060708090A0B0C0D55
:1001EE000E0F101112131415161718191A1B1C1DA9
:1001FE001E1F202122232425262728292A2B2C2D99
:10020E002E2F3031000102030405060708090A0BE0
:10021E000C0D0E0F101112131415161718191A1B98
:10022E001C1D1E1F202122232425262728292A2B88
:10023E002C2D2E2F3031000102030405060708096C
:10024E000A0B0C0D0E0F1011121314151617181988
:10025E001A1B1C1D1E1F2021222324252627282978
:10026E002A2B2C2D2E2F30310001020304050607F8
:10027E0008090A0B0C0D0E0F101112131415161778
:10028E0018191A1B1C1D1E1F202122232425262768
:10029E0028292A2B2C2D2E2F303100010203040584
:1002AE00060708090A0B0C0D0E0F10111213141568
:1002BE00161718191A1B1C1D1E1F20212223242558
:1002CE00262728292A2B2C2D2E2F30310001020310
:1002DE000405060708090A0B0C0D0E0F1011121358
:1002EE001415161718191A1B1C1D1E1F2021222348
:1002FE002425262728292A2B2C2D2E2F303100019C
:10030E0002030405060708090A0B0C0D0E0F101147
:10031E0012131415161718191A1B1C1D1E1F202137
:10032E0022232425262728292A2B2C2D2E2F303127
:10033E00000102030405060708090A0B0C0D0E0F37
:10034E00101112131415161718191A1B1C1D1E1F27
:10035E00202122232425262728292A2B2C2D2E2F17
:10036E003031000102030405060708090A0B0C0DC3
:10037E000E0F101112131415161718191A1B1C1D17
:10038E001E1F202122232425262728292A2B2C2D07
:10039E002E2F3031000102030405060708090A0B4F
:1003AE000C0D0E0F101112131415161718191A1B07
:1003BE001C1D1E1F202122232425262728292A2BF7
:1003CE002C2D2E2F303100010203040506070809DB
:1003DE000A0B0C0D0E0F10111213141516171819F7
:1003EE001A1B1C1D1E1F20212223242526272829E7
:0803FE002A2B2C2D2E2F30318B
:100B720053A2BF75985A758920758BC6758DC6D2DA
:020B82008E22C1
:080B90008F993099FDC29922F2
:100AB3008B108A118912AF051DEF6017AB10051259
:100AC300E512AA117002051114F9120B32FF120B71
:040AD3009080E3220A
:100AD700E4FDFCC3ED9FEC9E5015E4FBFA0BBB0055
:0F0AE700010ABA02F8BB58F50DBD00010C80E4FE
:010AF60022DD
:100AF700E4FDFCC3ED9FEC9E5015E4FBFA0BBB0035
:0F0B0700010AEB64024A70F50DBD00010C80E499
:010B160022BC
:020A65008F08F8
:100A6700C2A07F287E00120AD7D2A0120AD7E4F9C3
:100A7700E9C395085011D2A17FFA7E00120AF7C286
:070A8700A1120AF70980E942
:010A8E002245
:100B4B00C294C2A1C2A07FE87E03120AF7D2A01200
:050B5B000AF7D294220C
:0C0B8400758911758DFF758B8ED28E2245
:10070400020406E493A3F8E493A34003F68001F201
:1007140008DFF48029E493A3F85407240CC8C333F6
:10072400C4540F4420C8834004F456800146F6DFC5
:10073400E4800B01020408102040809007F8E47E56
:10074400019360BCA3FF543F30E509541FFEE493BA
:10075400A360010ECF54C025E060A840B8E493A381
:10076400FAE493A3F8E493A3C8C582C8CAC583CAAC
:10077400F0A3C8C582C8CAC583CADFE9DEE780BE64
:01086A00008D
:100B3200BB010689828A83E0225002E722BBFE02C1
:090B4200E32289828A83E49322F4
:00000001FF
