:030000000204E80F
:0C04E800787FE4F6D8FD75812102052F15
:100456004100150042000000004200020000420078
:1004660004000042000600004200090000C10941E4
:10047600000B004100140041000801C100C1044105
:10048600001300C10AC103C106C105C1085C0016FC
:100496000000000000000000000000000000000056
:1004A60000000000000000000000000047003500CA
:1004B60000000000000042000E000041000D00C1D7
:1004C60007C102410032004100110041000C00C189
:1004D6008141003400410012004100330141001007
:0104E6000015
:1007D800D290743529F582E43400F583E025E0F001
:0407E8007F327E00DE
:1007EC00E4FDFCC3ED9FEC9E5015E4FBFA0BBB0043
:0F07FC00010AEB64134A70F50DBD00010C80E497
:01080B0022CA
:10087100E4FDFCC3ED9FEC9E5015E4FBFA0BBB00BD
:0F088100010AEB641A4A70F50DBD00010C80E40A
:010890002245
:1007920090003F74B4F0E490003EF0E4F990003F22
:1007A200E0C2907F2C7E011207ECD29090003FE0D5
:1007B20025E0F07F647E001207EC09E9B408DE90C0
:1007C200003F74AA1207E790003EE004F0E0C394F1
:0507D2000140C8D290B7
:0107D70022FF
:0B064F00A3F0E4A3F0A3F0A3F0A3F0DD
:10065A0090004274B4F0E4900041F0E4F990004252
:10066A00E0C2907FCD7E001207ECD290900042E06B
:10067A0025E0F07F467E001207EC09E9B408DE9017
:10068A00004274AAF07F237E001207EC900041E03A
:0A069A0004F0E0C3940840C3D290BE
:0106A4002233
:1003980012090712000E12091CD2A9D2ABD2BBD285
:1003A800AFD290120003C2A4C294C2A7D2A6C2A21E
:1003B800D2A37F1B7E001208D1C2A2C2A3E4900080
:1003C80012F090000E7403F0A374FFF0E4A3F07F22
:1003D8000512080C90000DEFF07F0612080C900033
:1003E8000EE4F0A3EFF0E4900033F0C2A5C37480EC
:1003F8009481C294900033E0B40126D390000FE0BA
:10040800945A90000EE094035017E4900033F0D211
:10041800947F071208407F787E001208D1C294802A
:10042800CC900033E070C6C390000FE09477900042
:100438000EE0940340B79000337401F0D2947F0625
:0E0448001208407F787E001208D1C294809F77
:03001B0002022CB2
:10022C00C0E0C0F0C083C082C0D075D000C000C098
:10023C0001C002C003C004C005C006C007758DFF15
:10024C00758B8E209110900032E004F0C201E064B6
:10025C00967069F0806620014CD201900032E0FF6C
:10026C00D3943C4012EFD39464500C900011E0FFF7
:10027C0025E0F054FE8013900032E0D394644018D3
:10028C00900011E0FF25E0F04401F090000CE00438
:10029C00F0900034E4F08006900034E004F090001C
:1002AC0032E4F08017900034E004F0E0C394964000
:1002BC000B90000CE4F0D201900015F090000CE0D3
:1002CC006408705CF0900011E0FF900015E0FE24D3
:1002DC0035F582E43400F583EFF0EE700F900035C5
:1002EC00E0B4C8089000157401F08034EEB4010F2E
:1002FC00900036E0B4E0089000157402F08021EE16
:10030C00C39402400EEED394055008900015E004FF
:10031C00F0800DEEB40604D2078000900015E4F0D6
:10032C0030074EC207900037E0243F70441205E2BC
:10033C00C200900013E4F0900010F0C2A5C20A9025
:10034C000012E07014D2A2C2A37F1BFE1208D1C20D
:10035C00A2C2A39000127401F0900014E4F090007B
:10036C0008E0FF64036004EFB40206900008740117
:10037C00F0D007D006D005D004D003D002D001D0E5
:0C038C0000D0D0D082D083D0F0D0E0327E
:03000B0002001ED2
:10001E00C0E0C0F0C083C082C0D075D000C000C0A8
:10002E0001C002C003C004C005C006C007758C2401
:10003E00758A45900005E004F07006900004E00417
:10004E00F0C3900005E0943C900004E094004074EE
:10005E00300253900014E004F0E06403703E900010
:10006E0008E0FF640170359000147405F0EF640130
:10007E00702A900012E0B40114C2A2D2A37F1B7E9C
:10008E00001208D1C2A2C2A3900012E4F0D2A5D2EF
:10009E000A9000087402F090001014F0900010E026
:1000AE00B40103120744900004E4F0A3F07F05129C
:1000BE00080C90000DEFF07F0612080C90000EE475
:1000CE00F0A3EFF030A55920872B900003E004F049
:1000DE007006900002E004F0C3900003E0940A90D2
:1000EE000002E094004039E4F0A3F090000BE0042D
:1000FE00F0D204802B30872890000BE06022900015
:10010E0001E004F07006900000E004F0C3900001DE
:10011E00E094C8900000E09400400590000BE4F0DD
:10012E00900008E06402704D90000BE0FFC3940154
:10013E004043EFB40119300416C2A4D2947F0112C9
:10014E0008407F8C7E001208D1C294D2A4C20490C3
:10015E00000BE0C39402401D9000087403F0D2001F
:10016E00C20490000BE4F07F01FE1208D190001043
:10017E00E4F01206A5900008E06403600302021189
:10018E00300014C2A4D2947F031208407F787E0000
:10019E001208D1C294D2A4300014C2A4D2947F0407
:1001AE001208407FBE7E001208D1C294D2A49000E5
:1001BE0008E0B403031206A5300014C2A4D2947F43
:1001CE00031208407F787E001208D1C294D2A43068
:1001DE000014C2A4D2947F0B1208407FBE7E001280
:1001EE0008D1C294D2A4900008E0B403031206A56D
:1001FE00900013E0C394144004E4F0C20090001386
:10020E00E004F0D007D006D005D004D003D002D041
:0E021E0001D000D0D0D082D083D0F0D0E0321A
:1006F600D2A6D2A790003574C8F0A374E0F074C1F6
:1007060012064FE4F9E4900045F0743529F582E4C9
:100716003400F583E030E706C2907F788004C2900B
:100726007F507E001207EC1207D8900045E004F0D7
:0D073600E0C3940840D409E9B407CAC2A783
:010743002293
:10074400C2A6D2A790003574C8F0A374E0F074C2B6
:1007540012064FE4F9E4900040F0743529F582E480
:100764003400F583E030E706C2907F788004C290BD
:100774007F507E001207EC1207D8900040E004F08E
:0D078400E0C3940840D409E9B407CAC2A735
:010791002245
:1005E200C2A6D2A790003574C8F0A374E0F0A37439
:1005F200C2F0E4A3F0A3F0A3F0A3F0120792E4F98F
:10060200E490003DF0743529F582E43400F583E08E
:1006120030E706C2907F788004C2907F507E00123D
:100622000871D290743529F582E43400F583E0250F
:10063200E0F07F327E0012087190003DE004F0E0AD
:0C064200C3940840C009E9B407B6C2A781
:01064E002289
:1006A500C2A6D2A790003574C8F0A374E0F0A37475
:1006B500C3120650E4F9E4900040F0743529F58240
:1006C500E43400F583E030E706C2907F788004C209
:1006D500907F507E001207EC1207D8900040E0048E
:1006E500F0E0C3940840D409E9B407CAC2A7D2A66A
:0106F50022E2
:1008D100EF1FAA0670011E4A60107C137D88ED1D72
:0A08E100AA0470011C4A60E880F4CC
:0108EB0022EA
:10080C00EF6405700743F620C2F8800AEF640670A7
:10081C002243F640D2F8C2F9D2FA43E180C2FCD2AC
:10082C00FBAEF8EEC413135403FEADE2ED25E02548
:03083C00E02EFFAC
:01083F002296
:1008EC0075DCC0900043E4F0A3741DF0900043E06D
:0B08FC00FCA3E0FDECF5D1EDF5D922E6
:10057400EF14602214603714604C2403705F900001
:1005840043E4F0A3740DF0900043E0FCA3E0FDEC21
:10059400F5D2EDF5DA229000437401F0A3E4F09073
:1005A4000043E0FCA3E0FDECF5D3EDF5DB22900085
:1005B40043E4F0A37480F0900043E0FCA3E0FDEC7E
:1005C400F5D5EDF5DD22900043E4F0A37440F090FE
:0E05D4000043E0FCA3E0FDECF5D6EDF5DE22E1
:08000300E4FF1205740208EC91
:0C000E00758921758C24758A45D28C22DE
:10089100E4FDFCC3ED9FEC9E5015E4FBFA0BBB009D
:0F08A100010ABA01F8BBF4F50DBD00010C80E4AB
:0108B0002225
:1008B100E4FDFCC3ED9FEC9E5015E4FBFA0BBB007D
:0F08C100010AEB64024A70F50DBD00010C80E4E2
:0108D0002205
:05084000900040EFF004
:10084500C2A07F1E7E00120891D2A0120891E4F981
:10085500900040E0FFE9C39F5011D2A17FFA7E00CE
:0B0865001208B1C2A11208B10980E521
:010870002265
:10090700C294C2A1C2A07FE87E031208B1D2A0128E
:0509170008B1D294229A
:0C091C00758911758DFF758B8ED28E22AF
:1004F400020398E493A3F8E493A34003F68001F283
:1005040008DFF48029E493A3F85407240CC8C33308
:10051400C4540F4420C8834004F456800146F6DFD7
:10052400E4800B0102040810204080900456E47E0D
:10053400019360BCA3FF543F30E509541FFEE493CC
:10054400A360010ECF54C025E060A840B8E493A393
:10055400FAE493A3F8E493A3C8C582C8CAC583CABE
:10056400F0A3C8C582C8CAC583CADFE9DEE780BE76
:0104E7000014
:00000001FF
